{
  "_format": "hh-sol-artifact-1",
  "contractName": "JalapenoToken",
  "sourceName": "contracts/JalapenoToken.sol",
  "abi": [
    {
      "inputs": [],
      "stateMutability": "nonpayable",
      "type": "constructor"
    },
    {
      "anonymous": false,
      "inputs": [
        {
          "indexed": true,
          "internalType": "address",
          "name": "owner",
          "type": "address"
        },
        {
          "indexed": true,
          "internalType": "address",
          "name": "spender",
          "type": "address"
        },
        {
          "indexed": false,
          "internalType": "uint256",
          "name": "value",
          "type": "uint256"
        }
      ],
      "name": "Approval",
      "type": "event"
    },
    {
      "anonymous": false,
      "inputs": [
        {
          "indexed": true,
          "internalType": "address",
          "name": "delegator",
          "type": "address"
        },
        {
          "indexed": true,
          "internalType": "address",
          "name": "fromDelegate",
          "type": "address"
        },
        {
          "indexed": true,
          "internalType": "address",
          "name": "toDelegate",
          "type": "address"
        }
      ],
      "name": "DelegateChanged",
      "type": "event"
    },
    {
      "anonymous": false,
      "inputs": [
        {
          "indexed": true,
          "internalType": "address",
          "name": "delegate",
          "type": "address"
        },
        {
          "indexed": false,
          "internalType": "uint256",
          "name": "previousBalance",
          "type": "uint256"
        },
        {
          "indexed": false,
          "internalType": "uint256",
          "name": "newBalance",
          "type": "uint256"
        }
      ],
      "name": "DelegateVotesChanged",
      "type": "event"
    },
    {
      "anonymous": false,
      "inputs": [
        {
          "indexed": true,
          "internalType": "address",
          "name": "previousOwner",
          "type": "address"
        },
        {
          "indexed": true,
          "internalType": "address",
          "name": "newOwner",
          "type": "address"
        }
      ],
      "name": "OwnershipTransferred",
      "type": "event"
    },
    {
      "anonymous": false,
      "inputs": [
        {
          "indexed": true,
          "internalType": "address",
          "name": "from",
          "type": "address"
        },
        {
          "indexed": true,
          "internalType": "address",
          "name": "to",
          "type": "address"
        },
        {
          "indexed": false,
          "internalType": "uint256",
          "name": "value",
          "type": "uint256"
        }
      ],
      "name": "Transfer",
      "type": "event"
    },
    {
      "inputs": [],
      "name": "DECIMAL_MULTIPLIER",
      "outputs": [
        {
          "internalType": "uint256",
          "name": "",
          "type": "uint256"
        }
      ],
      "stateMutability": "view",
      "type": "function"
    },
    {
      "inputs": [],
      "name": "DELEGATION_TYPEHASH",
      "outputs": [
        {
          "internalType": "bytes32",
          "name": "",
          "type": "bytes32"
        }
      ],
      "stateMutability": "view",
      "type": "function"
    },
    {
      "inputs": [],
      "name": "DOMAIN_TYPEHASH",
      "outputs": [
        {
          "internalType": "bytes32",
          "name": "",
          "type": "bytes32"
        }
      ],
      "stateMutability": "view",
      "type": "function"
    },
    {
      "inputs": [
        {
          "internalType": "address",
          "name": "owner",
          "type": "address"
        },
        {
          "internalType": "address",
          "name": "spender",
          "type": "address"
        }
      ],
      "name": "allowance",
      "outputs": [
        {
          "internalType": "uint256",
          "name": "",
          "type": "uint256"
        }
      ],
      "stateMutability": "view",
      "type": "function"
    },
    {
      "inputs": [
        {
          "internalType": "address",
          "name": "spender",
          "type": "address"
        },
        {
          "internalType": "uint256",
          "name": "amount",
          "type": "uint256"
        }
      ],
      "name": "approve",
      "outputs": [
        {
          "internalType": "bool",
          "name": "",
          "type": "bool"
        }
      ],
      "stateMutability": "nonpayable",
      "type": "function"
    },
    {
      "inputs": [
        {
          "internalType": "address",
          "name": "account",
          "type": "address"
        }
      ],
      "name": "balanceOf",
      "outputs": [
        {
          "internalType": "uint256",
          "name": "",
          "type": "uint256"
        }
      ],
      "stateMutability": "view",
      "type": "function"
    },
    {
      "inputs": [],
      "name": "cap",
      "outputs": [
        {
          "internalType": "uint256",
          "name": "",
          "type": "uint256"
        }
      ],
      "stateMutability": "view",
      "type": "function"
    },
    {
      "inputs": [
        {
          "internalType": "address",
          "name": "",
          "type": "address"
        },
        {
          "internalType": "uint32",
          "name": "",
          "type": "uint32"
        }
      ],
      "name": "checkpoints",
      "outputs": [
        {
          "internalType": "uint32",
          "name": "fromBlock",
          "type": "uint32"
        },
        {
          "internalType": "uint256",
          "name": "votes",
          "type": "uint256"
        }
      ],
      "stateMutability": "view",
      "type": "function"
    },
    {
      "inputs": [],
      "name": "decimals",
      "outputs": [
        {
          "internalType": "uint8",
          "name": "",
          "type": "uint8"
        }
      ],
      "stateMutability": "view",
      "type": "function"
    },
    {
      "inputs": [
        {
          "internalType": "address",
          "name": "spender",
          "type": "address"
        },
        {
          "internalType": "uint256",
          "name": "subtractedValue",
          "type": "uint256"
        }
      ],
      "name": "decreaseAllowance",
      "outputs": [
        {
          "internalType": "bool",
          "name": "",
          "type": "bool"
        }
      ],
      "stateMutability": "nonpayable",
      "type": "function"
    },
    {
      "inputs": [
        {
          "internalType": "address",
          "name": "delegatee",
          "type": "address"
        }
      ],
      "name": "delegate",
      "outputs": [],
      "stateMutability": "nonpayable",
      "type": "function"
    },
    {
      "inputs": [
        {
          "internalType": "address",
          "name": "delegatee",
          "type": "address"
        },
        {
          "internalType": "uint256",
          "name": "nonce",
          "type": "uint256"
        },
        {
          "internalType": "uint256",
          "name": "expiry",
          "type": "uint256"
        },
        {
          "internalType": "uint8",
          "name": "v",
          "type": "uint8"
        },
        {
          "internalType": "bytes32",
          "name": "r",
          "type": "bytes32"
        },
        {
          "internalType": "bytes32",
          "name": "s",
          "type": "bytes32"
        }
      ],
      "name": "delegateBySig",
      "outputs": [],
      "stateMutability": "nonpayable",
      "type": "function"
    },
    {
      "inputs": [
        {
          "internalType": "address",
          "name": "delegator",
          "type": "address"
        }
      ],
      "name": "delegates",
      "outputs": [
        {
          "internalType": "address",
          "name": "",
          "type": "address"
        }
      ],
      "stateMutability": "view",
      "type": "function"
    },
    {
      "inputs": [
        {
          "internalType": "address",
          "name": "account",
          "type": "address"
        }
      ],
      "name": "getCurrentVotes",
      "outputs": [
        {
          "internalType": "uint256",
          "name": "",
          "type": "uint256"
        }
      ],
      "stateMutability": "view",
      "type": "function"
    },
    {
      "inputs": [],
      "name": "getOwner",
      "outputs": [
        {
          "internalType": "address",
          "name": "",
          "type": "address"
        }
      ],
      "stateMutability": "view",
      "type": "function"
    },
    {
      "inputs": [
        {
          "internalType": "address",
          "name": "account",
          "type": "address"
        },
        {
          "internalType": "uint256",
          "name": "blockNumber",
          "type": "uint256"
        }
      ],
      "name": "getPriorVotes",
      "outputs": [
        {
          "internalType": "uint256",
          "name": "",
          "type": "uint256"
        }
      ],
      "stateMutability": "view",
      "type": "function"
    },
    {
      "inputs": [
        {
          "internalType": "address",
          "name": "spender",
          "type": "address"
        },
        {
          "internalType": "uint256",
          "name": "addedValue",
          "type": "uint256"
        }
      ],
      "name": "increaseAllowance",
      "outputs": [
        {
          "internalType": "bool",
          "name": "",
          "type": "bool"
        }
      ],
      "stateMutability": "nonpayable",
      "type": "function"
    },
    {
      "inputs": [
        {
          "internalType": "address",
          "name": "_to",
          "type": "address"
        },
        {
          "internalType": "uint256",
          "name": "_amount",
          "type": "uint256"
        }
      ],
      "name": "mint",
      "outputs": [],
      "stateMutability": "nonpayable",
      "type": "function"
    },
    {
      "inputs": [
        {
          "internalType": "uint256",
          "name": "amount",
          "type": "uint256"
        }
      ],
      "name": "mint",
      "outputs": [
        {
          "internalType": "bool",
          "name": "",
          "type": "bool"
        }
      ],
      "stateMutability": "nonpayable",
      "type": "function"
    },
    {
      "inputs": [],
      "name": "name",
      "outputs": [
        {
          "internalType": "string",
          "name": "",
          "type": "string"
        }
      ],
      "stateMutability": "view",
      "type": "function"
    },
    {
      "inputs": [
        {
          "internalType": "address",
          "name": "",
          "type": "address"
        }
      ],
      "name": "nonces",
      "outputs": [
        {
          "internalType": "uint256",
          "name": "",
          "type": "uint256"
        }
      ],
      "stateMutability": "view",
      "type": "function"
    },
    {
      "inputs": [
        {
          "internalType": "address",
          "name": "",
          "type": "address"
        }
      ],
      "name": "numCheckpoints",
      "outputs": [
        {
          "internalType": "uint32",
          "name": "",
          "type": "uint32"
        }
      ],
      "stateMutability": "view",
      "type": "function"
    },
    {
      "inputs": [],
      "name": "owner",
      "outputs": [
        {
          "internalType": "address",
          "name": "",
          "type": "address"
        }
      ],
      "stateMutability": "view",
      "type": "function"
    },
    {
      "inputs": [],
      "name": "renounceOwnership",
      "outputs": [],
      "stateMutability": "nonpayable",
      "type": "function"
    },
    {
      "inputs": [],
      "name": "symbol",
      "outputs": [
        {
          "internalType": "string",
          "name": "",
          "type": "string"
        }
      ],
      "stateMutability": "view",
      "type": "function"
    },
    {
      "inputs": [],
      "name": "totalSupply",
      "outputs": [
        {
          "internalType": "uint256",
          "name": "",
          "type": "uint256"
        }
      ],
      "stateMutability": "view",
      "type": "function"
    },
    {
      "inputs": [
        {
          "internalType": "address",
          "name": "recipient",
          "type": "address"
        },
        {
          "internalType": "uint256",
          "name": "amount",
          "type": "uint256"
        }
      ],
      "name": "transfer",
      "outputs": [
        {
          "internalType": "bool",
          "name": "",
          "type": "bool"
        }
      ],
      "stateMutability": "nonpayable",
      "type": "function"
    },
    {
      "inputs": [
        {
          "internalType": "address",
          "name": "sender",
          "type": "address"
        },
        {
          "internalType": "address",
          "name": "recipient",
          "type": "address"
        },
        {
          "internalType": "uint256",
          "name": "amount",
          "type": "uint256"
        }
      ],
      "name": "transferFrom",
      "outputs": [
        {
          "internalType": "bool",
          "name": "",
          "type": "bool"
        }
      ],
      "stateMutability": "nonpayable",
      "type": "function"
    },
    {
      "inputs": [
        {
          "internalType": "address",
          "name": "newOwner",
          "type": "address"
        }
      ],
      "name": "transferOwnership",
      "outputs": [],
      "stateMutability": "nonpayable",
      "type": "function"
    }
  ],
  "bytecode": "0x6080604052670de0b6b3a76400006007553480156200001d57600080fd5b50604051806040016040528060098152602001684a616c6170656e6f7360b81b8152506040518060400160405280600381526020016204a4c560ec1b81525060006200006e6200011c60201b60201c565b600080546001600160a01b0319166001600160a01b0383169081178255604051929350917f8be0079c531659141344cd1fd0a4f28419497f9722a3daafe3b4186f6b6457e0908290a3508151620000cd90600490602085019062000287565b508051620000e390600590602084019062000287565b50506006805460ff1916601217905550600754629896808102600855620271000260098190556200011690339062000120565b62000323565b3390565b6001600160a01b0382166200017c576040805162461bcd60e51b815260206004820152601f60248201527f42455032303a206d696e7420746f20746865207a65726f206164647265737300604482015290519081900360640190fd5b62000198816003546200022560201b620011cb1790919060201c565b6003556001600160a01b038216600090815260016020908152604090912054620001cd918390620011cb62000225821b17901c565b6001600160a01b03831660008181526001602090815260408083209490945583518581529351929391927fddf252ad1be2c89b69c2b068fc378daa952ba7f163c4a11628f55a4df523b3ef9281900390910190a35050565b60008282018381101562000280576040805162461bcd60e51b815260206004820152601b60248201527f536166654d6174683a206164646974696f6e206f766572666c6f770000000000604482015290519081900360640190fd5b9392505050565b828054600181600116156101000203166002900490600052602060002090601f016020900481019282601f10620002ca57805160ff1916838001178555620002fa565b82800160010185558215620002fa579182015b82811115620002fa578251825591602001919060010190620002dd565b50620003089291506200030c565b5090565b5b808211156200030857600081556001016200030d565b611c1c80620003336000396000f3fe608060405234801561001057600080fd5b50600436106101cf5760003560e01c8063715018a611610104578063a457c2d7116100a2578063dd62ed3e11610071578063dd62ed3e14610592578063e7a324dc146105c0578063f1127ed8146105c8578063f2fde38b1461061a576101cf565b8063a457c2d7146104cd578063a9059cbb146104f9578063b4b5ea5714610525578063c3cda5201461054b576101cf565b8063893d20e8116100de578063893d20e8146104985780638da5cb5b146104a057806395d89b41146104a8578063a0712d68146104b0576101cf565b8063715018a61461043e578063782d6fe1146104465780637ecebe0014610472576101cf565b8063355274ea11610171578063587cde1e1161014b578063587cde1e146103715780635c19a95c146103b35780636fcfff45146103d957806370a0823114610418576101cf565b8063355274ea1461030f578063395093511461031757806340c10f1914610343576101cf565b80631aef8058116101ad5780631aef8058146102ab57806320606b70146102b357806323b872dd146102bb578063313ce567146102f1576101cf565b806306fdde03146101d4578063095ea7b31461025157806318160ddd14610291575b600080fd5b6101dc610640565b6040805160208082528351818301528351919283929083019185019080838360005b838110156102165781810151838201526020016101fe565b50505050905090810190601f1680156102435780820380516001836020036101000a031916815260200191505b509250505060405180910390f35b61027d6004803603604081101561026757600080fd5b506001600160a01b0381351690602001356106d6565b604080519115158252519081900360200190f35b6102996106f4565b60408051918252519081900360200190f35b6102996106fa565b610299610700565b61027d600480360360608110156102d157600080fd5b506001600160a01b03813581169160208101359091169060400135610724565b6102f96107ab565b6040805160ff9092168252519081900360200190f35b6102996107b4565b61027d6004803603604081101561032d57600080fd5b506001600160a01b0381351690602001356107ba565b61036f6004803603604081101561035957600080fd5b506001600160a01b038135169060200135610808565b005b6103976004803603602081101561038757600080fd5b50356001600160a01b03166108f8565b604080516001600160a01b039092168252519081900360200190f35b61036f600480360360208110156103c957600080fd5b50356001600160a01b0316610916565b6103ff600480360360208110156103ef57600080fd5b50356001600160a01b0316610923565b6040805163ffffffff9092168252519081900360200190f35b6102996004803603602081101561042e57600080fd5b50356001600160a01b031661093b565b61036f610956565b6102996004803603604081101561045c57600080fd5b506001600160a01b0381351690602001356109f8565b6102996004803603602081101561048857600080fd5b50356001600160a01b0316610c00565b610397610c12565b610397610c21565b6101dc610c30565b61027d600480360360208110156104c657600080fd5b5035610c91565b61027d600480360360408110156104e357600080fd5b506001600160a01b038135169060200135610d04565b61027d6004803603604081101561050f57600080fd5b506001600160a01b038135169060200135610d6c565b6102996004803603602081101561053b57600080fd5b50356001600160a01b0316610d80565b61036f600480360360c081101561056157600080fd5b506001600160a01b038135169060208101359060408101359060ff6060820135169060808101359060a00135610de4565b610299600480360360408110156105a857600080fd5b506001600160a01b0381358116916020013516611057565b610299611082565b6105fa600480360360408110156105de57600080fd5b5080356001600160a01b0316906020013563ffffffff166110a6565b6040805163ffffffff909316835260208301919091528051918290030190f35b61036f6004803603602081101561063057600080fd5b50356001600160a01b03166110d3565b60048054604080516020601f60026000196101006001881615020190951694909404938401819004810282018101909252828152606093909290918301828280156106cc5780601f106106a1576101008083540402835291602001916106cc565b820191906000526020600020905b8154815290600101906020018083116106af57829003601f168201915b5050505050905090565b60006106ea6106e3611225565b8484611229565b5060015b92915050565b60035490565b60075481565b7f8cad95687ba82c2ce50e74f7b754645e5117c3a5bec8151c0726d5857980a86681565b6000610731848484611315565b6107a18461073d611225565b61079c85604051806060016040528060288152602001611a6c602891396001600160a01b038a1660009081526002602052604081209061077b611225565b6001600160a01b031681526020810191909152604001600020549190611467565b611229565b5060019392505050565b60065460ff1690565b60085490565b60006106ea6107c7611225565b8461079c85600260006107d8611225565b6001600160a01b03908116825260208083019390935260409182016000908120918c1681529252902054906111cb565b610810611225565b6000546001600160a01b03908116911614610860576040805162461bcd60e51b81526020600482018190526024820152600080516020611b04833981519152604482015290519081900360640190fd5b6108686107b4565b816108716106f4565b0111156108c5576040805162461bcd60e51b815260206004820152601960248201527f42455032304361707065643a2063617020657863656564656400000000000000604482015290519081900360640190fd5b6108cf82826114fe565b6001600160a01b038083166000908152600a60205260408120546108f49216836115e4565b5050565b6001600160a01b039081166000908152600a60205260409020541690565b6109203382611726565b50565b600c6020526000908152604090205463ffffffff1681565b6001600160a01b031660009081526001602052604090205490565b61095e611225565b6000546001600160a01b039081169116146109ae576040805162461bcd60e51b81526020600482018190526024820152600080516020611b04833981519152604482015290519081900360640190fd5b600080546040516001600160a01b03909116907f8be0079c531659141344cd1fd0a4f28419497f9722a3daafe3b4186f6b6457e0908390a3600080546001600160a01b0319169055565b6000438210610a385760405162461bcd60e51b8152600401808060200182810382526026815260200180611ab96026913960400191505060405180910390fd5b6001600160a01b0383166000908152600c602052604090205463ffffffff1680610a665760009150506106ee565b6001600160a01b0384166000908152600b6020908152604080832063ffffffff600019860181168552925290912054168310610ad5576001600160a01b0384166000908152600b602090815260408083206000199490940163ffffffff168352929052206001015490506106ee565b6001600160a01b0384166000908152600b6020908152604080832083805290915290205463ffffffff16831015610b105760009150506106ee565b600060001982015b8163ffffffff168163ffffffff161115610bc957600282820363ffffffff16048103610b426119c4565b506001600160a01b0387166000908152600b6020908152604080832063ffffffff808616855290835292819020815180830190925280549093168082526001909301549181019190915290871415610ba4576020015194506106ee9350505050565b805163ffffffff16871115610bbb57819350610bc2565b6001820392505b5050610b18565b506001600160a01b0385166000908152600b6020908152604080832063ffffffff9094168352929052206001015491505092915050565b600d6020526000908152604090205481565b6000610c1c610c21565b905090565b6000546001600160a01b031690565b60058054604080516020601f60026000196101006001881615020190951694909404938401819004810282018101909252828152606093909290918301828280156106cc5780601f106106a1576101008083540402835291602001916106cc565b6000610c9b611225565b6000546001600160a01b03908116911614610ceb576040805162461bcd60e51b81526020600482018190526024820152600080516020611b04833981519152604482015290519081900360640190fd5b610cfc610cf6611225565b836114fe565b506001919050565b60006106ea610d11611225565b8461079c85604051806060016040528060258152602001611b6d6025913960026000610d3b611225565b6001600160a01b03908116825260208083019390935260409182016000908120918d16815292529020549190611467565b60006106ea610d79611225565b8484611315565b6001600160a01b0381166000908152600c602052604081205463ffffffff1680610dab576000610ddd565b6001600160a01b0383166000908152600b6020908152604080832063ffffffff60001986011684529091529020600101545b9392505050565b60007f8cad95687ba82c2ce50e74f7b754645e5117c3a5bec8151c0726d5857980a866610e0f610640565b80519060200120610e1e6117bb565b60408051602080820195909552808201939093526060830191909152306080808401919091528151808403909101815260a0830182528051908401207fe48329057bfd03d55e49b547132e39cffd9c1820ad7b9d4c5307691425d15adf60c08401526001600160a01b038b1660e084015261010083018a90526101208084018a9052825180850390910181526101408401835280519085012061190160f01b6101608501526101628401829052610182808501829052835180860390910181526101a285018085528151918701919091206000918290526101c2860180865281905260ff8b166101e287015261020286018a90526102228601899052935192965090949293909260019261024280840193601f198301929081900390910190855afa158015610f51573d6000803e3d6000fd5b5050604051601f1901519150506001600160a01b038116610fa35760405162461bcd60e51b8152600401808060200182810382526025815260200180611a946025913960400191505060405180910390fd5b6001600160a01b0381166000908152600d6020526040902080546001810190915589146110015760405162461bcd60e51b8152600401808060200182810382526021815260200180611a4b6021913960400191505060405180910390fd5b874211156110405760405162461bcd60e51b8152600401808060200182810382526025815260200180611adf6025913960400191505060405180910390fd5b61104a818b611726565b505050505b505050505050565b6001600160a01b03918216600090815260026020908152604080832093909416825291909152205490565b7fe48329057bfd03d55e49b547132e39cffd9c1820ad7b9d4c5307691425d15adf81565b600b6020908152600092835260408084209091529082529020805460019091015463ffffffff9091169082565b6110db611225565b6000546001600160a01b0390811691161461112b576040805162461bcd60e51b81526020600482018190526024820152600080516020611b04833981519152604482015290519081900360640190fd5b6001600160a01b0381166111705760405162461bcd60e51b8152600401808060200182810382526026815260200180611a256026913960400191505060405180910390fd5b600080546040516001600160a01b03808516939216917f8be0079c531659141344cd1fd0a4f28419497f9722a3daafe3b4186f6b6457e091a3600080546001600160a01b0319166001600160a01b0392909216919091179055565b600082820183811015610ddd576040805162461bcd60e51b815260206004820152601b60248201527f536166654d6174683a206164646974696f6e206f766572666c6f770000000000604482015290519081900360640190fd5b3390565b6001600160a01b03831661126e5760405162461bcd60e51b8152600401808060200182810382526024815260200180611a016024913960400191505060405180910390fd5b6001600160a01b0382166112b35760405162461bcd60e51b8152600401808060200182810382526022815260200180611bc56022913960400191505060405180910390fd5b6001600160a01b03808416600081815260026020908152604080832094871680845294825291829020859055815185815291517f8c5be1e5ebec7d5bd14f71427d1e84f3dd0314c0f7b2291e5b200ac8c7c3b9259281900390910190a3505050565b6001600160a01b03831661135a5760405162461bcd60e51b81526004018080602001828103825260258152602001806119dc6025913960400191505060405180910390fd5b6001600160a01b03821661139f5760405162461bcd60e51b8152600401808060200182810382526023815260200180611b4a6023913960400191505060405180910390fd5b6113dc81604051806060016040528060268152602001611b24602691396001600160a01b0386166000908152600160205260409020549190611467565b6001600160a01b03808516600090815260016020526040808220939093559084168152205461140b90826111cb565b6001600160a01b0380841660008181526001602090815260409182902094909455805185815290519193928716927fddf252ad1be2c89b69c2b068fc378daa952ba7f163c4a11628f55a4df523b3ef92918290030190a3505050565b600081848411156114f65760405162461bcd60e51b81526004018080602001828103825283818151815260200191508051906020019080838360005b838110156114bb5781810151838201526020016114a3565b50505050905090810190601f1680156114e85780820380516001836020036101000a031916815260200191505b509250505060405180910390fd5b505050900390565b6001600160a01b038216611559576040805162461bcd60e51b815260206004820152601f60248201527f42455032303a206d696e7420746f20746865207a65726f206164647265737300604482015290519081900360640190fd5b60035461156690826111cb565b6003556001600160a01b03821660009081526001602052604090205461158c90826111cb565b6001600160a01b03831660008181526001602090815260408083209490945583518581529351929391927fddf252ad1be2c89b69c2b068fc378daa952ba7f163c4a11628f55a4df523b3ef9281900390910190a35050565b816001600160a01b0316836001600160a01b0316141580156116065750600081115b15611721576001600160a01b03831615611698576001600160a01b0383166000908152600c602052604081205463ffffffff169081611646576000611678565b6001600160a01b0385166000908152600b6020908152604080832063ffffffff60001987011684529091529020600101545b9050600061168682856117bf565b905061169486848484611801565b5050505b6001600160a01b03821615611721576001600160a01b0382166000908152600c602052604081205463ffffffff1690816116d3576000611705565b6001600160a01b0384166000908152600b6020908152604080832063ffffffff60001987011684529091529020600101545b9050600061171382856111cb565b905061104f85848484611801565b505050565b6001600160a01b038083166000908152600a60205260408120549091169061174d8461093b565b6001600160a01b038581166000818152600a602052604080822080546001600160a01b031916898616908117909155905194955093928616927f3134e8a2e6d97e929a7e54011ea5485d7d196dd5f0ba4d4ef95803e8e3fc257f9190a46117b58284836115e4565b50505050565b4690565b6000610ddd83836040518060400160405280601e81526020017f536166654d6174683a207375627472616374696f6e206f766572666c6f770000815250611467565b600061182543604051806060016040528060338152602001611b9260339139611966565b905060008463ffffffff1611801561186e57506001600160a01b0385166000908152600b6020908152604080832063ffffffff6000198901811685529252909120548282169116145b156118ab576001600160a01b0385166000908152600b6020908152604080832063ffffffff6000198901168452909152902060010182905561191c565b60408051808201825263ffffffff808416825260208083018681526001600160a01b038a166000818152600b84528681208b8616825284528681209551865490861663ffffffff199182161787559251600196870155908152600c9092529390208054928801909116919092161790555b604080518481526020810184905281516001600160a01b038816927fdec2bacdd2f05b59de34da9b523dff8be42e5e38e818c82fdb0bae774387a724928290030190a25050505050565b60008164010000000084106119bc5760405162461bcd60e51b81526020600482018181528351602484015283519092839260449091019190850190808383600083156114bb5781810151838201526020016114a3565b509192915050565b60408051808201909152600080825260208201529056fe42455032303a207472616e736665722066726f6d20746865207a65726f206164647265737342455032303a20617070726f76652066726f6d20746865207a65726f20616464726573734f776e61626c653a206e6577206f776e657220697320746865207a65726f20616464726573734a41503a3a64656c656761746542795369673a20696e76616c6964206e6f6e636542455032303a207472616e7366657220616d6f756e74206578636565647320616c6c6f77616e63654a41503a3a64656c656761746542795369673a20696e76616c6964207369676e61747572654a41503a3a6765745072696f72566f7465733a206e6f74207965742064657465726d696e65644a41503a3a64656c656761746542795369673a207369676e617475726520657870697265644f776e61626c653a2063616c6c6572206973206e6f7420746865206f776e657242455032303a207472616e7366657220616d6f756e7420657863656564732062616c616e636542455032303a207472616e7366657220746f20746865207a65726f206164647265737342455032303a2064656372656173656420616c6c6f77616e63652062656c6f77207a65726f4a41503a3a5f7772697465436865636b706f696e743a20626c6f636b206e756d6265722065786365656473203332206269747342455032303a20617070726f766520746f20746865207a65726f2061646472657373a2646970667358221220e97779c3378a992c468ee580b3cd01aedf8c957450a9fadfe77d3bd9ff61c61164736f6c634300060c0033",
  "linkReferences": {},
  "deployedLinkReferences": {}
}