{
  "_format": "hh-sol-artifact-1",
  "contractName": "NinjaChef",
  "sourceName": "contracts/NinjaChef.sol",
  "abi": [
    {
      "inputs": [
        {
          "internalType": "contract JalapenoToken",
          "name": "_jalapeno",
          "type": "address"
        },
        {
          "internalType": "address",
          "name": "_devaddr",
          "type": "address"
        },
        {
          "internalType": "address",
          "name": "_feeAddress",
          "type": "address"
        },
        {
          "internalType": "uint256",
          "name": "_jalapenosPerBlock",
          "type": "uint256"
        },
        {
          "internalType": "uint256",
          "name": "_startBlock",
          "type": "uint256"
        }
      ],
      "stateMutability": "nonpayable",
      "type": "constructor"
    },
    {
      "anonymous": false,
      "inputs": [
        {
          "indexed": true,
          "internalType": "address",
          "name": "user",
          "type": "address"
        },
        {
          "indexed": true,
          "internalType": "uint256",
          "name": "pid",
          "type": "uint256"
        },
        {
          "indexed": false,
          "internalType": "uint256",
          "name": "amount",
          "type": "uint256"
        }
      ],
      "name": "Deposit",
      "type": "event"
    },
    {
      "anonymous": false,
      "inputs": [
        {
          "indexed": true,
          "internalType": "address",
          "name": "user",
          "type": "address"
        },
        {
          "indexed": true,
          "internalType": "uint256",
          "name": "pid",
          "type": "uint256"
        },
        {
          "indexed": false,
          "internalType": "uint256",
          "name": "amount",
          "type": "uint256"
        }
      ],
      "name": "EmergencyWithdraw",
      "type": "event"
    },
    {
      "anonymous": false,
      "inputs": [
        {
          "indexed": true,
          "internalType": "address",
          "name": "previousOwner",
          "type": "address"
        },
        {
          "indexed": true,
          "internalType": "address",
          "name": "newOwner",
          "type": "address"
        }
      ],
      "name": "OwnershipTransferred",
      "type": "event"
    },
    {
      "anonymous": false,
      "inputs": [
        {
          "indexed": true,
          "internalType": "address",
          "name": "user",
          "type": "address"
        },
        {
          "indexed": true,
          "internalType": "uint256",
          "name": "pid",
          "type": "uint256"
        },
        {
          "indexed": false,
          "internalType": "uint256",
          "name": "amount",
          "type": "uint256"
        }
      ],
      "name": "Withdraw",
      "type": "event"
    },
    {
      "inputs": [],
      "name": "BONUS_MULTIPLIER",
      "outputs": [
        {
          "internalType": "uint256",
          "name": "",
          "type": "uint256"
        }
      ],
      "stateMutability": "view",
      "type": "function"
    },
    {
      "inputs": [
        {
          "internalType": "uint256",
          "name": "_allocPoint",
          "type": "uint256"
        },
        {
          "internalType": "contract IBEP20",
          "name": "_lpToken",
          "type": "address"
        },
        {
          "internalType": "uint16",
          "name": "_depositFeeBP",
          "type": "uint16"
        },
        {
          "internalType": "bool",
          "name": "_withUpdate",
          "type": "bool"
        }
      ],
      "name": "add",
      "outputs": [],
      "stateMutability": "nonpayable",
      "type": "function"
    },
    {
      "inputs": [
        {
          "internalType": "uint256",
          "name": "_pid",
          "type": "uint256"
        },
        {
          "internalType": "uint256",
          "name": "_amount",
          "type": "uint256"
        }
      ],
      "name": "deposit",
      "outputs": [],
      "stateMutability": "nonpayable",
      "type": "function"
    },
    {
      "inputs": [
        {
          "internalType": "address",
          "name": "_devaddr",
          "type": "address"
        }
      ],
      "name": "dev",
      "outputs": [],
      "stateMutability": "nonpayable",
      "type": "function"
    },
    {
      "inputs": [],
      "name": "devaddr",
      "outputs": [
        {
          "internalType": "address",
          "name": "",
          "type": "address"
        }
      ],
      "stateMutability": "view",
      "type": "function"
    },
    {
      "inputs": [
        {
          "internalType": "uint256",
          "name": "_pid",
          "type": "uint256"
        }
      ],
      "name": "emergencyWithdraw",
      "outputs": [],
      "stateMutability": "nonpayable",
      "type": "function"
    },
    {
      "inputs": [],
      "name": "feeAddress",
      "outputs": [
        {
          "internalType": "address",
          "name": "",
          "type": "address"
        }
      ],
      "stateMutability": "view",
      "type": "function"
    },
    {
      "inputs": [
        {
          "internalType": "uint256",
          "name": "_from",
          "type": "uint256"
        },
        {
          "internalType": "uint256",
          "name": "_to",
          "type": "uint256"
        }
      ],
      "name": "getMultiplier",
      "outputs": [
        {
          "internalType": "uint256",
          "name": "",
          "type": "uint256"
        }
      ],
      "stateMutability": "view",
      "type": "function"
    },
    {
      "inputs": [],
      "name": "jalapeno",
      "outputs": [
        {
          "internalType": "contract JalapenoToken",
          "name": "",
          "type": "address"
        }
      ],
      "stateMutability": "view",
      "type": "function"
    },
    {
      "inputs": [],
      "name": "jalapenosPerBlock",
      "outputs": [
        {
          "internalType": "uint256",
          "name": "",
          "type": "uint256"
        }
      ],
      "stateMutability": "view",
      "type": "function"
    },
    {
      "inputs": [],
      "name": "massUpdatePools",
      "outputs": [],
      "stateMutability": "nonpayable",
      "type": "function"
    },
    {
      "inputs": [],
      "name": "owner",
      "outputs": [
        {
          "internalType": "address",
          "name": "",
          "type": "address"
        }
      ],
      "stateMutability": "view",
      "type": "function"
    },
    {
      "inputs": [
        {
          "internalType": "uint256",
          "name": "_pid",
          "type": "uint256"
        },
        {
          "internalType": "address",
          "name": "_user",
          "type": "address"
        }
      ],
      "name": "pendingJlp",
      "outputs": [
        {
          "internalType": "uint256",
          "name": "",
          "type": "uint256"
        }
      ],
      "stateMutability": "view",
      "type": "function"
    },
    {
      "inputs": [
        {
          "internalType": "uint256",
          "name": "",
          "type": "uint256"
        }
      ],
      "name": "poolInfo",
      "outputs": [
        {
          "internalType": "contract IBEP20",
          "name": "lpToken",
          "type": "address"
        },
        {
          "internalType": "uint256",
          "name": "allocPoint",
          "type": "uint256"
        },
        {
          "internalType": "uint256",
          "name": "lastRewardBlock",
          "type": "uint256"
        },
        {
          "internalType": "uint256",
          "name": "accJlpPerShare",
          "type": "uint256"
        },
        {
          "internalType": "uint16",
          "name": "depositFeeBP",
          "type": "uint16"
        }
      ],
      "stateMutability": "view",
      "type": "function"
    },
    {
      "inputs": [],
      "name": "poolLength",
      "outputs": [
        {
          "internalType": "uint256",
          "name": "",
          "type": "uint256"
        }
      ],
      "stateMutability": "view",
      "type": "function"
    },
    {
      "inputs": [],
      "name": "renounceOwnership",
      "outputs": [],
      "stateMutability": "nonpayable",
      "type": "function"
    },
    {
      "inputs": [
        {
          "internalType": "uint256",
          "name": "_pid",
          "type": "uint256"
        },
        {
          "internalType": "uint256",
          "name": "_allocPoint",
          "type": "uint256"
        },
        {
          "internalType": "uint16",
          "name": "_depositFeeBP",
          "type": "uint16"
        },
        {
          "internalType": "bool",
          "name": "_withUpdate",
          "type": "bool"
        }
      ],
      "name": "set",
      "outputs": [],
      "stateMutability": "nonpayable",
      "type": "function"
    },
    {
      "inputs": [
        {
          "internalType": "address",
          "name": "_feeAddress",
          "type": "address"
        }
      ],
      "name": "setFeeAddress",
      "outputs": [],
      "stateMutability": "nonpayable",
      "type": "function"
    },
    {
      "inputs": [],
      "name": "startBlock",
      "outputs": [
        {
          "internalType": "uint256",
          "name": "",
          "type": "uint256"
        }
      ],
      "stateMutability": "view",
      "type": "function"
    },
    {
      "inputs": [],
      "name": "totalAllocPoint",
      "outputs": [
        {
          "internalType": "uint256",
          "name": "",
          "type": "uint256"
        }
      ],
      "stateMutability": "view",
      "type": "function"
    },
    {
      "inputs": [
        {
          "internalType": "address",
          "name": "newOwner",
          "type": "address"
        }
      ],
      "name": "transferOwnership",
      "outputs": [],
      "stateMutability": "nonpayable",
      "type": "function"
    },
    {
      "inputs": [
        {
          "internalType": "uint256",
          "name": "_jalapenosPerBlock",
          "type": "uint256"
        }
      ],
      "name": "updateEmissionRate",
      "outputs": [],
      "stateMutability": "nonpayable",
      "type": "function"
    },
    {
      "inputs": [
        {
          "internalType": "uint256",
          "name": "_pid",
          "type": "uint256"
        }
      ],
      "name": "updatePool",
      "outputs": [],
      "stateMutability": "nonpayable",
      "type": "function"
    },
    {
      "inputs": [
        {
          "internalType": "uint256",
          "name": "",
          "type": "uint256"
        },
        {
          "internalType": "address",
          "name": "",
          "type": "address"
        }
      ],
      "name": "userInfo",
      "outputs": [
        {
          "internalType": "uint256",
          "name": "amount",
          "type": "uint256"
        },
        {
          "internalType": "uint256",
          "name": "rewardDebt",
          "type": "uint256"
        }
      ],
      "stateMutability": "view",
      "type": "function"
    },
    {
      "inputs": [
        {
          "internalType": "uint256",
          "name": "_pid",
          "type": "uint256"
        },
        {
          "internalType": "uint256",
          "name": "_amount",
          "type": "uint256"
        }
      ],
      "name": "withdraw",
      "outputs": [],
      "stateMutability": "nonpayable",
      "type": "function"
    }
  ],
  "bytecode": "0x6080604052600060075534801561001557600080fd5b50604051611b8e380380611b8e833981810160405260a081101561003857600080fd5b5080516020820151604083015160608401516080909401519293919290919060006100616100f7565b600080546001600160a01b0319166001600160a01b0383169081178255604051929350917f8be0079c531659141344cd1fd0a4f28419497f9722a3daafe3b4186f6b6457e0908290a350600180546001600160a01b03199081166001600160a01b0397881617909155600280548216958716959095179094556004805490941692909416919091179091556003556008556100fb565b3390565b611a848061010a6000396000f3fe608060405234801561001057600080fd5b50600436106101735760003560e01c8063715018a6116100de5780638dbb1e3a11610097578063d49e77cd11610071578063d49e77cd146103e6578063d9638422146103ee578063e2bbb15814610423578063f2fde38b1461044657610173565b80638dbb1e3a1461035257806393f1a40b14610375578063c172ba3e146103ba57610173565b8063715018a6146102b057806384e82a33146102b85780638705fcd4146102f65780638aa285501461031c5780638d88a90e146103245780638da5cb5b1461034a57610173565b806348cd4cb11161013057806348cd4cb1146102565780634bdcd16d1461025e57806351eb05a6146102665780635312ea8e14610283578063630b5ba1146102a05780636e9d6a07146102a857610173565b8063081e3eda146101785780630ba84cd2146101925780631526fe27146101b157806317caf6f114610207578063412753581461020f578063441a3e7014610233575b600080fd5b61018061046c565b60408051918252519081900360200190f35b6101af600480360360208110156101a857600080fd5b5035610472565b005b6101ce600480360360208110156101c757600080fd5b50356104d7565b604080516001600160a01b039096168652602086019490945284840192909252606084015261ffff166080830152519081900360a00190f35b610180610523565b610217610529565b604080516001600160a01b039092168252519081900360200190f35b6101af6004803603604081101561024957600080fd5b5080359060200135610538565b610180610697565b61018061069d565b6101af6004803603602081101561027c57600080fd5b50356106a3565b6101af6004803603602081101561029957600080fd5b50356108d9565b6101af610975565b610217610998565b6101af6109a7565b6101af600480360360808110156102ce57600080fd5b508035906001600160a01b036020820135169061ffff60408201351690606001351515610a49565b6101af6004803603602081101561030c57600080fd5b50356001600160a01b0316610c51565b610180610cd2565b6101af6004803603602081101561033a57600080fd5b50356001600160a01b0316610cd7565b610217610d44565b6101806004803603604081101561036857600080fd5b5080359060200135610d53565b6103a16004803603604081101561038b57600080fd5b50803590602001356001600160a01b0316610d6d565b6040805192835260208301919091528051918290030190f35b610180600480360360408110156103d057600080fd5b50803590602001356001600160a01b0316610d91565b610217610eef565b6101af6004803603608081101561040457600080fd5b5080359060208101359061ffff60408201351690606001351515610efe565b6101af6004803603604081101561043957600080fd5b508035906020013561104e565b6101af6004803603602081101561045c57600080fd5b50356001600160a01b03166111c6565b60055490565b61047a6112be565b6000546001600160a01b039081169116146104ca576040805162461bcd60e51b81526020600482018190526024820152600080516020611a2f833981519152604482015290519081900360640190fd5b6104d2610975565b600355565b600581815481106104e457fe5b6000918252602090912060059091020180546001820154600283015460038401546004909401546001600160a01b0390931694509092909161ffff1685565b60075481565b6004546001600160a01b031681565b60006005838154811061054757fe5b6000918252602080832086845260068252604080852033865290925292208054600590920290920192508311156105ba576040805162461bcd60e51b81526020600482015260126024820152711dda5d1a191c985dce881b9bdd0819dbdbd960721b604482015290519081900360640190fd5b6105c3846106a3565b60006105fd82600101546105f764e8d4a510006105f1876003015487600001546112c290919063ffffffff16565b9061131b565b9061135d565b9050801561060f5761060f338261139f565b8315610639578154610621908561135d565b82558254610639906001600160a01b03163386611530565b600383015482546106549164e8d4a51000916105f1916112c2565b6001830155604080518581529051869133917ff279e6a1f5e320cca91135676d9cb6e44ca8a08c0b88342bcdb1144f6511b5689181900360200190a35050505050565b60085481565b60035481565b6000600582815481106106b257fe5b90600052602060002090600502019050806002015443116106d357506108d6565b8054604080516370a0823160e01b815230600482015290516000926001600160a01b0316916370a08231916024808301926020929190829003018186803b15801561071d57600080fd5b505afa158015610731573d6000803e3d6000fd5b505050506040513d602081101561074757600080fd5b5051905080158061075a57506001820154155b1561076c5750436002909101556108d6565b600061077c836002015443610d53565b905060006107a96007546105f186600101546107a3600354876112c290919063ffffffff16565b906112c2565b6001546002549192506001600160a01b03908116916340c10f1991166107d084600a61131b565b6040518363ffffffff1660e01b815260040180836001600160a01b0316815260200182815260200192505050600060405180830381600087803b15801561081657600080fd5b505af115801561082a573d6000803e3d6000fd5b5050600154604080516340c10f1960e01b81523060048201526024810186905290516001600160a01b0390921693506340c10f19925060448082019260009290919082900301818387803b15801561088157600080fd5b505af1158015610895573d6000803e3d6000fd5b505050506108c36108b8846105f164e8d4a51000856112c290919063ffffffff16565b600386015490611582565b6003850155505043600290920191909155505b50565b6000600582815481106108e857fe5b600091825260208083208584526006825260408085203380875293528420805485825560018201959095556005909302018054909450919291610938916001600160a01b03919091169083611530565b604080518281529051859133917fbb757047c2b5f3974fe26b7c10f732e7bce710b0952a71082702781e62ae05959181900360200190a350505050565b60055460005b818110156109945761098c816106a3565b60010161097b565b5050565b6001546001600160a01b031681565b6109af6112be565b6000546001600160a01b039081169116146109ff576040805162461bcd60e51b81526020600482018190526024820152600080516020611a2f833981519152604482015290519081900360640190fd5b600080546040516001600160a01b03909116907f8be0079c531659141344cd1fd0a4f28419497f9722a3daafe3b4186f6b6457e0908390a3600080546001600160a01b0319169055565b610a516112be565b6000546001600160a01b03908116911614610aa1576040805162461bcd60e51b81526020600482018190526024820152600080516020611a2f833981519152604482015290519081900360640190fd5b6127108261ffff161115610ae65760405162461bcd60e51b81526004018080602001828103825260258152602001806119746025913960400191505060405180910390fd5b8015610af457610af4610975565b60006008544311610b0757600854610b09565b435b600754909150610b199086611582565b6007556040805160a0810182526001600160a01b0395861681526020810196875290810191825260006060820181815261ffff95861660808401908152600580546001810182559381905293517f036b6384b5eca791c62761152d0c79bb0604c104a5fb6f4eb0703f3154bb3db09390940292830180546001600160a01b031916949098169390931790965595517f036b6384b5eca791c62761152d0c79bb0604c104a5fb6f4eb0703f3154bb3db187015590517f036b6384b5eca791c62761152d0c79bb0604c104a5fb6f4eb0703f3154bb3db286015592517f036b6384b5eca791c62761152d0c79bb0604c104a5fb6f4eb0703f3154bb3db38501555090517f036b6384b5eca791c62761152d0c79bb0604c104a5fb6f4eb0703f3154bb3db4909201805461ffff191692909116919091179055565b6004546001600160a01b03163314610cb0576040805162461bcd60e51b815260206004820152601860248201527f736574466565416464726573733a20464f5242494444454e0000000000000000604482015290519081900360640190fd5b600480546001600160a01b0319166001600160a01b0392909216919091179055565b600181565b6002546001600160a01b03163314610d22576040805162461bcd60e51b81526020600482015260096024820152686465763a207775743f60b81b604482015290519081900360640190fd5b600280546001600160a01b0319166001600160a01b0392909216919091179055565b6000546001600160a01b031690565b6000610d6460016107a3848661135d565b90505b92915050565b60066020908152600092835260408084209091529082529020805460019091015482565b60008060058481548110610da157fe5b600091825260208083208784526006825260408085206001600160a01b0389811687529084528186206005959095029092016003810154815483516370a0823160e01b815230600482015293519298509596909590949316926370a082319260248082019391829003018186803b158015610e1b57600080fd5b505afa158015610e2f573d6000803e3d6000fd5b505050506040513d6020811015610e4557600080fd5b5051600285015490915043118015610e5c57508015155b15610ebc576000610e71856002015443610d53565b90506000610e986007546105f188600101546107a3600354876112c290919063ffffffff16565b9050610eb7610eb0846105f18464e8d4a510006112c2565b8590611582565b935050505b610ee483600101546105f764e8d4a510006105f18688600001546112c290919063ffffffff16565b979650505050505050565b6002546001600160a01b031681565b610f066112be565b6000546001600160a01b03908116911614610f56576040805162461bcd60e51b81526020600482018190526024820152600080516020611a2f833981519152604482015290519081900360640190fd5b6127108261ffff161115610f9b5760405162461bcd60e51b8152600401808060200182810382526025815260200180611a0a6025913960400191505060405180910390fd5b8015610fa957610fa9610975565b610fe683610fe060058781548110610fbd57fe5b90600052602060002090600502016001015460075461135d90919063ffffffff16565b90611582565b6007819055508260058581548110610ffa57fe5b906000526020600020906005020160010181905550816005858154811061101d57fe5b906000526020600020906005020160040160006101000a81548161ffff021916908361ffff16021790555050505050565b60006005838154811061105d57fe5b6000918252602080832086845260068252604080852033865290925292206005909102909101915061108e846106a3565b8054156110d75760006110c382600101546105f764e8d4a510006105f1876003015487600001546112c290919063ffffffff16565b905080156110d5576110d5338261139f565b505b82156111695781546110f4906001600160a01b03163330866115dc565b600482015461ffff161561115a57600482015460009061112190612710906105f190879061ffff166112c2565b6004548454919250611140916001600160a01b03908116911683611530565b81546111529082906105f79087611582565b825550611169565b80546111669084611582565b81555b600382015481546111849164e8d4a51000916105f1916112c2565b6001820155604080518481529051859133917f90890809c654f11d6e72a28fa60149770a0d11ec6c92319d6ceb2bb0a4ea1a159181900360200190a350505050565b6111ce6112be565b6000546001600160a01b0390811691161461121e576040805162461bcd60e51b81526020600482018190526024820152600080516020611a2f833981519152604482015290519081900360640190fd5b6001600160a01b0381166112635760405162461bcd60e51b81526004018080602001828103825260268152602001806119c36026913960400191505060405180910390fd5b600080546040516001600160a01b03808516939216917f8be0079c531659141344cd1fd0a4f28419497f9722a3daafe3b4186f6b6457e091a3600080546001600160a01b0319166001600160a01b0392909216919091179055565b3390565b6000826112d157506000610d67565b828202828482816112de57fe5b0414610d645760405162461bcd60e51b81526004018080602001828103825260218152602001806119e96021913960400191505060405180910390fd5b6000610d6483836040518060400160405280601a81526020017f536166654d6174683a206469766973696f6e206279207a65726f00000000000081525061163c565b6000610d6483836040518060400160405280601e81526020017f536166654d6174683a207375627472616374696f6e206f766572666c6f7700008152506116de565b600154604080516370a0823160e01b815230600482015290516000926001600160a01b0316916370a08231916024808301926020929190829003018186803b1580156113ea57600080fd5b505afa1580156113fe573d6000803e3d6000fd5b505050506040513d602081101561141457600080fd5b50519050808211156114a8576001546040805163a9059cbb60e01b81526001600160a01b038681166004830152602482018590529151919092169163a9059cbb9160448083019260209291908290030181600087803b15801561147657600080fd5b505af115801561148a573d6000803e3d6000fd5b505050506040513d60208110156114a057600080fd5b5061152b9050565b6001546040805163a9059cbb60e01b81526001600160a01b038681166004830152602482018690529151919092169163a9059cbb9160448083019260209291908290030181600087803b1580156114fe57600080fd5b505af1158015611512573d6000803e3d6000fd5b505050506040513d602081101561152857600080fd5b50505b505050565b604080516001600160a01b038416602482015260448082018490528251808303909101815260649091019091526020810180516001600160e01b031663a9059cbb60e01b17905261152b908490611738565b600082820183811015610d64576040805162461bcd60e51b815260206004820152601b60248201527f536166654d6174683a206164646974696f6e206f766572666c6f770000000000604482015290519081900360640190fd5b604080516001600160a01b0380861660248301528416604482015260648082018490528251808303909101815260849091019091526020810180516001600160e01b03166323b872dd60e01b179052611636908590611738565b50505050565b600081836116c85760405162461bcd60e51b81526004018080602001828103825283818151815260200191508051906020019080838360005b8381101561168d578181015183820152602001611675565b50505050905090810190601f1680156116ba5780820380516001836020036101000a031916815260200191505b509250505060405180910390fd5b5060008385816116d457fe5b0495945050505050565b600081848411156117305760405162461bcd60e51b815260206004820181815283516024840152835190928392604490910191908501908083836000831561168d578181015183820152602001611675565b505050900390565b606061178d826040518060400160405280602081526020017f5361666542455032303a206c6f772d6c6576656c2063616c6c206661696c6564815250856001600160a01b03166117e99092919063ffffffff16565b80519091501561152b578080602001905160208110156117ac57600080fd5b505161152b5760405162461bcd60e51b815260040180806020018281038252602a815260200180611999602a913960400191505060405180910390fd5b60606117f88484600085611800565b949350505050565b606061180b8561196d565b61185c576040805162461bcd60e51b815260206004820152601d60248201527f416464726573733a2063616c6c20746f206e6f6e2d636f6e7472616374000000604482015290519081900360640190fd5b60006060866001600160a01b031685876040518082805190602001908083835b6020831061189b5780518252601f19909201916020918201910161187c565b6001836020036101000a03801982511681845116808217855250505050505090500191505060006040518083038185875af1925050503d80600081146118fd576040519150601f19603f3d011682016040523d82523d6000602084013e611902565b606091505b509150915081156119165791506117f89050565b8051156119265780518082602001fd5b60405162461bcd60e51b815260206004820181815286516024840152865187939192839260440191908501908083836000831561168d578181015183820152602001611675565b3b15159056fe6164643a20696e76616c6964206465706f7369742066656520626173697320706f696e74735361666542455032303a204245503230206f7065726174696f6e20646964206e6f7420737563636565644f776e61626c653a206e6577206f776e657220697320746865207a65726f2061646472657373536166654d6174683a206d756c7469706c69636174696f6e206f766572666c6f777365743a20696e76616c6964206465706f7369742066656520626173697320706f696e74734f776e61626c653a2063616c6c6572206973206e6f7420746865206f776e6572a26469706673582212209abb236f8e8794ec40a12a4383e414255d4652ef77ee4451ade3cb2e61c878b464736f6c634300060c0033",
  "linkReferences": {},
  "deployedLinkReferences": {}
}